{
  "_format": "hh-sol-artifact-1",
  "contractName": "LandTitleRegistry",
  "sourceName": "contracts/LandTitleRegistry.sol",
  "abi": [
    {
      "anonymous": false,
      "inputs": [
        {
          "indexed": false,
          "internalType": "string",
          "name": "titleNumber",
          "type": "string"
        },
        {
          "indexed": false,
          "internalType": "string",
          "name": "hash",
          "type": "string"
        },
        {
          "indexed": false,
          "internalType": "uint256",
          "name": "timestamp",
          "type": "uint256"
        }
      ],
      "name": "LandTitleRegistered",
      "type": "event"
    },
    {
      "inputs": [
        {
          "internalType": "string",
          "name": "_titleNumber",
          "type": "string"
        }
      ],
      "name": "getLandTitle",
      "outputs": [
        {
          "internalType": "string",
          "name": "",
          "type": "string"
        },
        {
          "internalType": "string",
          "name": "",
          "type": "string"
        },
        {
          "internalType": "uint256",
          "name": "",
          "type": "uint256"
        }
      ],
      "stateMutability": "view",
      "type": "function"
    },
    {
      "inputs": [
        {
          "internalType": "string",
          "name": "_titleNumber",
          "type": "string"
        },
        {
          "internalType": "string",
          "name": "_hash",
          "type": "string"
        }
      ],
      "name": "registerLandTitle",
      "outputs": [],
      "stateMutability": "nonpayable",
      "type": "function"
    }
  ],
  "bytecode": "0x6080604052348015600f57600080fd5b50610a748061001f6000396000f3fe608060405234801561001057600080fd5b50600436106100355760003560e01c8062edb2c51461003a578063aad8fa3414610056575b600080fd5b610054600480360381019061004f9190610497565b610088565b005b610070600480360381019061006b919061050f565b6101c1565b60405161007f939291906105f0565b60405180910390f35b60008251116100cc576040517f08c379a00000000000000000000000000000000000000000000000000000000081526004016100c390610681565b60405180910390fd5b6000815111610110576040517f08c379a0000000000000000000000000000000000000000000000000000000008152600401610107906106ed565b60405180910390fd5b60405180606001604052808381526020018281526020014281525060008360405161013b9190610749565b9081526020016040518091039020600082015181600001908161015e919061096c565b506020820151816001019081610174919061096c565b50604082015181600201559050507f558701d81ece62e61b7301799a924b42dd1f3f4008bb63835983a724d47176d48282426040516101b5939291906105f0565b60405180910390a15050565b6060806000806000856040516101d79190610749565b90815260200160405180910390206040518060600160405290816000820180546102009061078f565b80601f016020809104026020016040519081016040528092919081815260200182805461022c9061078f565b80156102795780601f1061024e57610100808354040283529160200191610279565b820191906000526020600020905b81548152906001019060200180831161025c57829003601f168201915b505050505081526020016001820180546102929061078f565b80601f01602080910402602001604051908101604052809291908181526020018280546102be9061078f565b801561030b5780601f106102e05761010080835404028352916020019161030b565b820191906000526020600020905b8154815290600101906020018083116102ee57829003601f168201915b505050505081526020016002820154815250509050806000015181602001518260400151935093509350509193909250565b6000604051905090565b600080fd5b600080fd5b600080fd5b600080fd5b6000601f19601f8301169050919050565b7f4e487b7100000000000000000000000000000000000000000000000000000000600052604160045260246000fd5b6103a48261035b565b810181811067ffffffffffffffff821117156103c3576103c261036c565b5b80604052505050565b60006103d661033d565b90506103e2828261039b565b919050565b600067ffffffffffffffff8211156104025761040161036c565b5b61040b8261035b565b9050602081019050919050565b82818337600083830152505050565b600061043a610435846103e7565b6103cc565b90508281526020810184848401111561045657610455610356565b5b610461848285610418565b509392505050565b600082601f83011261047e5761047d610351565b5b813561048e848260208601610427565b91505092915050565b600080604083850312156104ae576104ad610347565b5b600083013567ffffffffffffffff8111156104cc576104cb61034c565b5b6104d885828601610469565b925050602083013567ffffffffffffffff8111156104f9576104f861034c565b5b61050585828601610469565b9150509250929050565b60006020828403121561052557610524610347565b5b600082013567ffffffffffffffff8111156105435761054261034c565b5b61054f84828501610469565b91505092915050565b600081519050919050565b600082825260208201905092915050565b60005b83811015610592578082015181840152602081019050610577565b60008484015250505050565b60006105a982610558565b6105b38185610563565b93506105c3818560208601610574565b6105cc8161035b565b840191505092915050565b6000819050919050565b6105ea816105d7565b82525050565b6000606082019050818103600083015261060a818661059e565b9050818103602083015261061e818561059e565b905061062d60408301846105e1565b949350505050565b7f5469746c65206e756d6265722072657175697265640000000000000000000000600082015250565b600061066b601583610563565b915061067682610635565b602082019050919050565b6000602082019050818103600083015261069a8161065e565b9050919050565b7f4861736820726571756972656400000000000000000000000000000000000000600082015250565b60006106d7600d83610563565b91506106e2826106a1565b602082019050919050565b60006020820190508181036000830152610706816106ca565b9050919050565b600081905092915050565b600061072382610558565b61072d818561070d565b935061073d818560208601610574565b80840191505092915050565b60006107558284610718565b915081905092915050565b7f4e487b7100000000000000000000000000000000000000000000000000000000600052602260045260246000fd5b600060028204905060018216806107a757607f821691505b6020821081036107ba576107b9610760565b5b50919050565b60008190508160005260206000209050919050565b60006020601f8301049050919050565b600082821b905092915050565b6000600883026108227fffffffffffffffffffffffffffffffffffffffffffffffffffffffffffffffff826107e5565b61082c86836107e5565b95508019841693508086168417925050509392505050565b6000819050919050565b600061086961086461085f846105d7565b610844565b6105d7565b9050919050565b6000819050919050565b6108838361084e565b61089761088f82610870565b8484546107f2565b825550505050565b600090565b6108ac61089f565b6108b781848461087a565b505050565b5b818110156108db576108d06000826108a4565b6001810190506108bd565b5050565b601f821115610920576108f1816107c0565b6108fa846107d5565b81016020851015610909578190505b61091d610915856107d5565b8301826108bc565b50505b505050565b600082821c905092915050565b600061094360001984600802610925565b1980831691505092915050565b600061095c8383610932565b9150826002028217905092915050565b61097582610558565b67ffffffffffffffff81111561098e5761098d61036c565b5b610998825461078f565b6109a38282856108df565b600060209050601f8311600181146109d657600084156109c4578287015190505b6109ce8582610950565b865550610a36565b601f1984166109e4866107c0565b60005b82811015610a0c578489015182556001820191506020850194506020810190506109e7565b86831015610a295784890151610a25601f891682610932565b8355505b6001600288020188555050505b50505050505056fea2646970667358221220282e035a00d2056afa1499b009bb7196eec5e278cd365500d8f240e8d9dd3fa264736f6c634300081c0033",
  "linkReferences": {},
  "deployedLinkReferences": {}
}